:020000040800F2
:1000000000500020A5130008D5030008D7030008FE
:10001000D9030008DB030008DD030008000000002E
:10002000000000000000000000000000DF030008E6
:10003000E103000800000000E3030008E5030008F6
:10004000ED130008ED130008ED130008ED13000890
:10005000ED130008ED130008ED130008ED13000880
:10006000ED130008ED130008ED130008ED13000870
:10007000ED130008ED130008ED130008ED13000860
:10008000ED130008ED130008ED130008ED13000850
:10009000ED130008ED130008ED130008ED13000840
:1000A000ED130008ED130008ED130008ED13000830
:1000B000ED130008ED130008ED130008ED13000820
:1000C000ED130008ED130008ED130008ED13000810
:1000D000ED130008ED130008ED130008ED13000800
:1000E000ED030008ED130008ED1300080000000008
:1000F0000000000000000000000000000000000000
:0C01000000000000000000005FF808F1A3
:10010C000348044B834202D0034B03B1184770479A
:10011C000C0000200C000020000000000548064BDD
:10012C001B1AD90F01EBA301491002D0034B03B1E9
:10013C00184770470C0000200C0000200000000045
:10014C0010B5064C237843B9FFF7DAFF044B13B113
:10015C000448AFF300800123237010BD0C00002075
:10016C00000000004814000808B5054B1BB10549F8
:10017C000548AFF30080BDE80840FFF7CFBF00BFD4
:10018C0000000000100000204814000870B588B072
:10019C0000240494059406940794224B9A6942F027
:1001AC0010029A619A6902F010020092009A9A6900
:1001BC0042F020029A619A6902F020020192019A9F
:1001CC009A6942F008029A619A6902F00802029256
:1001DC00029A9A6942F004029A619B6903F0040343
:1001EC000393039B104E22464FF42041304601F0FE
:1001FC0045F84FF4204304930125059506940223FA
:10020C00079304A9304600F02BFF4FF400630493CE
:10021C00064B0593069504A9054800F021FF08B08C
:10022C0070BD00BF00100240001001400000111012
:10023C00000C014008B500221146282001F078F886
:10024C00282001F085F808BDB0F5006F01D000BF83
:10025C00704708B500224FF4005100F1804000F5C2
:10026C00843001F00BF8094A13780133DBB21370B8
:10027C00092B00D808BD01224FF40051044800F0AE
:10028C00FDFF024B00221A70F4E700BF280000208B
:10029C000010014072B6FEE700B58FB000230A9340
:1002AC000B930C930D93089309930193029303936F
:1002BC00049305930693079323484FF08042026002
:1002CC0041F61F424260836042F21072C2600361C9
:1002DC00836100F0D9F950BB4FF480530A930AA9FB
:1002EC00194800F0C0FA20BB174800F0F9F910BB10
:1002FC000821154800F020FAF8B900230893099357
:10030C0008A9114800F02EFBC8B9002301934B2219
:10031C00029203930593082201A90B4800F068FA96
:10032C0078B9094800F098F80FB05DF804FBFFF7B6
:10033C00B1FFFFF7AFFFFFF7ADFFFFF7ABFFFFF725
:10034C00A9FFFFF7A7FF00BF2C00002000B591B05C
:10035C002822002106A801F069F8002301930293DA
:10036C00039304930593012206924FF48033079371
:10037C000A9202220D920E934FF4E0130F9306A8EB
:10038C0000F086FB80B90F23019302210291002318
:10039C0003934FF480620492059301A800F0AAFD28
:1003AC0020B911B05DF804FBFFF774FFFFF772FF83
:1003BC0008B500F033FBFFF7C9FFFFF7E7FEFFF7C7
:1003CC006BFFFFF737FFFEE7FEE7FEE7FEE7FEE712
:1003DC00FEE770477047704708B500F031FB08BD69
:1003EC0008B54FF4006000F04FFF08BD82B00E4B13
:1003FC009A6942F001029A619A6902F00102009234
:10040C00009ADA6942F08052DA61DB6903F08053BA
:10041C000193019B054A536823F0E06343F000739A
:10042C00536002B0704700BF001002400000014052
:10043C000368B3F1804F00D0704782B003F50433EA
:10044C00DA6942F00102DA61DB6903F0010301931E
:10045C00019B02B07047000000B587B000230293E7
:10046C000393049305930368B3F1804F02D007B054
:10047C005DF804FB03F504339A6942F008029A61B3
:10048C009B6903F008030193019B4FF48063029373
:10049C0002230393059302A9064800F0E1FD064AE6
:1004AC00536823F4407343F0E06343F400735360E8
:1004BC00DDE700BF000C01400000014030B4026ACF
:1004CC00036A23F0010303624568836923F0730315
:1004DC000C681C4322F002028B6813430B4A9042B7
:1004EC0006D0456084614A684263036230BC704741
:1004FC0023F00803CA681A4322F0040325F440755C
:10050C004A692A438D691543EBE700BF002C014073
:10051C0030B4036A026A22F4807202624468C269CF
:10052C0022F073020D68154323F400738A6843EAC2
:10053C0002230D4A904206D04460C5614A68C263EA
:10054C00036230BC704723F40063CA6843EA022399
:10055C0023F4806324F440544A6944EA02148A69FF
:10056C0044EA0214E8E700BF002C014030B4036AEF
:10057C00026A22F4805202624468C26922F4E642A2
:10058C000D6842EA052223F400538D6843EA0533D3
:10059C00074DA84206D04460C2614A6802640362F7
:1005AC0030BC704724F480444D6944EA8514F2E76A
:1005BC00002C014010B4036A046A24F001040462A4
:1005CC00846924F0F00C4CEA021223F00A030B436A
:1005DC008261036210BC704710B4036A046A24F091
:1005EC0010040462846924F4704C4CEA023223F047
:1005FC00A00343EA01138261036210BC7047836855
:10060C0023F070030B4343F007038360704770477C
:10061C007047000003681B4A90420AD0B0F1804F2B
:10062C0007D0A2F59432904203D002F5806290423A
:10063C0003D123F070034A681343124A90420AD044
:10064C00B0F1804F07D0A2F59432904203D002F55E
:10065C008062904203D123F44073CA68134323F0A1
:10066C0080034A69134303608B68C3620B6883621F
:10067C00044B984202D00123436170470B6903631A
:10068C00F9E700BF002C014040B310B5044690F8C8
:10069C003D30F3B1022384F83D30214651F8040B70
:1006AC00FFF7B8FF012384F8463084F83E3084F815
:1006BC003F3084F8403084F8413084F8423084F87C
:1006CC00433084F8443084F8453084F83D300020C1
:1006DC0010BD80F83C30FFF7ABFEDBE70120704724
:1006EC0040B310B5044690F83D30F3B1022384F8C2
:1006FC003D30214651F8040BFFF78CFF012384F8A1
:10070C00463084F83E3084F83F3084F8403084F82A
:10071C00413084F8423084F8433084F8443084F813
:10072C00453084F83D30002010BD80F83C30FFF798
:10073C006EFFDBE70120704750B338B50D46044619
:10074C0090F83D30FBB1022384F83D30214651F83E
:10075C00040BFFF75FFF2268136823F00803136094
:10076C00226813682B431360012384F8463084F805
:10077C003E3084F83F3084F8423084F8433084F8BB
:10078C003D30002038BD80F83C30FFF741FFDAE700
:10079C000120704730B4036A026A22F01002026230
:1007AC004468826922F4E6420D6842EA052223F08D
:1007BC0020038D6843EA05130C4DA84206D0446013
:1007CC0082614A688263036230BC704723F0800305
:1007DC00CD6843EA051323F0400324F440644D69CB
:1007EC0044EA85048D6944EA8504E8E7002C01405D
:1007FC0090F83C30012B28D010B50446012380F82A
:10080C003C300C2A1CD8DFE802F0071B1B1B0C1B0E
:10081C001B1B111B1B1B16000068FFF74FFE002053
:10082C000FE00068FFF7B6FF00200AE00068FFF752
:10083C006FFE002005E00068FFF798FE002000E046
:10084C000120002384F83C3010BD0220704710B406
:10085C00846824F47F4C42EA03220A4342EA0C02E5
:10086C00826010BC704790F83C30012B78D010B5EA
:10087C000446012380F83C30022380F83D300268A6
:10088C00936823F47F4323F0770393600B68602B0A
:10089C004CD023D8402B54D011D8202B03D00AD8BD
:1008AC000BB1102B05D119462068FFF7A8FE0020CC
:1008BC0028E0012026E0302BF5D0012022E0502B3F
:1008CC000AD1CA6849680068FFF774FE5021206895
:1008DC00FFF795FE002015E0012013E0B3F5805FD3
:1008EC003AD0B3F5005F14D0702B37D1CB684A687F
:1008FC0089680068FFF7ABFF2268936843F07703C1
:10090C0093600020012384F83D30002384F83C30B0
:10091C0010BDCB684A6889680068FFF798FF2268A9
:10092C00936843F4804393600020EBE7CA684968FE
:10093C000068FFF751FE60212068FFF760FE002081
:10094C00E0E7CA6849680068FFF734FE4021206878
:10095C00FFF755FE0020D5E70020D3E70120D1E7B3
:10096C000220704790F83C20012A2CD010B403468A
:10097C00012280F83C20022280F83D200268506859
:10098C00946820F0700C086840EA0C0050601A68FB
:10099C000E4882420AD0B2F1804F07D0A0F59430B5
:1009AC00824203D000F58060824204D124F080049E
:1009BC00496821439160012283F83D20002083F88F
:1009CC003C0010BC70470220704700BF002C014057
:1009DC0010B504460E4B1A784FF47A73B3FBF2F34E
:1009EC000C4A1068B0FBF3F000F0C0FC68B90F2C97
:1009FC0001D901200AE0002221464FF0FF3000F01F
:100A0C0097FC054B1C60002000E0012010BD00BFCE
:100A1C0000000020080000200400002008B5074A50
:100A2C00136843F010031360032000F06FFC0F20D9
:100A3C00FFF7CEFFFFF7DAFC002008BD00200240D4
:100A4C00034A1168034B1B780B441360704700BFBB
:100A5C007400002000000020014B1868704700BF94
:100A6C007400002082B0084B1B68084AA2FB0323C9
:100A7C005B0A00FB03F3019300BF019B5A1E01921A
:100A8C00002BF9D102B0704708000020D34D621042
:100A9C00002800F0F18170B582B00446036813F0B1
:100AAC00010F2CD0994B5B6803F00C03042B1DD069
:100ABC00964B5B6803F00C03082B12D06368B3F5FC
:100ACC00803F41D0002B55D103F1804303F5043313
:100ADC001A6822F480321A601A6822F480221A6092
:100AEC0037E08A4B5B6813F4803FE7D0874B1B6879
:100AFC0013F4003F03D06368002B00F0BF81236820
:100B0C0013F0020F75D0814B5B6813F00C0F5FD0A4
:100B1C007E4B5B6803F00C03082B54D02369002B2D
:100B2C0000F08A807A4B01221A60FFF795FF054688
:100B3C00764B1B6813F0020F75D1FFF78DFF401B2E
:100B4C000228F5D903209EE1704A136843F48033E0
:100B5C001360636843B3FFF77FFF05466B4B1B685D
:100B6C0013F4003FCBD1FFF777FF401B6428F5D976
:100B7C00032088E1B3F5A02F09D0644B1A6822F446
:100B8C0080321A601A6822F480221A60E1E703F1BD
:100B9C008043A3F53C331A6842F480221A601A6829
:100BAC0042F480321A60D4E7FFF756FF0546574BE4
:100BBC001B6813F4003FA2D0FFF74EFF401B6428C4
:100BCC00F5D903205FE1514B5B6813F4803FA5D14D
:100BDC004E4B1B6813F0020F03D02369012B40F01E
:100BEC004F814A4A136823F0F803616943EAC10351
:100BFC001360236813F0080F33D0A369002B5CD06B
:100C0C00434B0122C3F88024FFF726FF05463F4BD8
:100C1C005B6A13F0020F21D1FFF71EFF401B022865
:100C2C00F5D903202FE1394A136823F0F8036169E1
:100C3C0043EAC1031360DCE7354B00221A60FFF76F
:100C4C000BFF0546314B1B6813F0020FD1D0FFF799
:100C5C0003FF401B0228F5D9032014E10120FFF704
:100C6C0001FF236813F0040F00F09680274BDB691B
:100C7C0013F0805F34D1254BDA6942F08052DA618F
:100C8C00DB6903F080530193019B0125214B1B6809
:100C9C0013F4807F26D0E368012B3DD0002B53D179
:100CAC0003F1804303F504331A6A22F001021A623D
:100CBC001A6A22F004021A6233E0154B0022C3F8C0
:100CCC008024FFF7C9FE0546104B5B6A13F0020F38
:100CDC00C7D0FFF7C1FE401B0228F5D90320D2E094
:100CEC000025D3E70B4A136843F480731360FFF7B6
:100CFC00B3FE0646074B1B6813F4807FCBD1FFF77E
:100D0C00ABFE801B6428F5D90320BCE00010024028
:100D1C0000004242007000405F4A136A43F0010336
:100D2C001362E36833B3FFF797FE06465A4B1B6A10
:100D3C0013F0020F2FD1FFF78FFE801B41F2883387
:100D4C009842F3D903209EE0052B09D0524B1A6A26
:100D5C0022F001021A621A6A22F004021A62E0E717
:100D6C004D4B1A6A42F004021A621A6A42F00102EE
:100D7C001A62D6E7FFF770FE0646474B1B6A13F064
:100D8C00020F08D0FFF768FE801B41F288339842AF
:100D9C00F3D9032077E0E5B9E369002B72D03E4A22
:100DAC00526802F00C02082A56D0022B17D03B4B8B
:100DBC0000221A66FFF750FE0446374B1B6813F0EF
:100DCC00007F47D0FFF748FE001B0228F5D903200F
:100DDC0059E0314AD36923F08053D361DCE72F4BC0
:100DEC0000221A66FFF738FE05462B4B1B6813F0E2
:100DFC00007F06D0FFF730FE401B0228F5D90320F8
:100E0C0041E0236AB3F5803F1AD023494B6823F4A1
:100E1C007413226A606A024313434B601F4B012216
:100E2C001A66FFF719FE04461B4B1B6813F0007F74
:100E3C000ED1FFF711FE001B0228F5D9032022E08A
:100E4C00154A536823F40033A1680B435360DCE765
:100E5C00002018E0002016E0012B16D00E4B5B682A
:100E6C0003F48031226A914211D103F47013626A47
:100E7C0093420ED1002006E001207047012002E0D1
:100E8C00012000E0002002B070BD0120FBE7012032
:100E9C00F9E70120F7E700BF0010024000004242D2
:100EAC000F4B5B6803F00C02082A01D00D48704709
:100EBC00C3F383420C49885C13F4803F0BD0084B7E
:100ECC005B68C3F34043094AD35C064A02FB00F05B
:100EDC00B0FBF3F07047064B03FB00F0704700BF0C
:100EEC000010024000127A0064140008601400081C
:100EFC0000093D00002800F0A08070B50D460446A6
:100F0C00524B1B6803F007038B420BD24F4A1368FA
:100F1C0023F007030B431360136803F007038B42A2
:100F2C0040F08D80236813F0020F17D013F0040FDC
:100F3C0004D0474A536843F4E0635360236813F0CA
:100F4C00080F04D0424A536843F460535360404A3C
:100F5C00536823F0F003A1680B435360236813F02C
:100F6C00010F31D06368012B20D0022B25D0384AD9
:100F7C00126812F0020F64D035494A6822F003025D
:100F8C0013434B60FFF768FD0646314B5B6803F07B
:100F9C000C036268B3EB820F16D0FFF75DFD801B6C
:100FAC0041F288339842F0D9032045E0284A126870
:100FBC0012F4003FE0D101203EE0254A126812F005
:100FCC00007FD9D1012037E0204B1B6803F00703C9
:100FDC00AB420AD91D4A136823F007032B43136055
:100FEC00136803F00703AB422DD1236813F0040FF1
:100FFC0006D0174A536823F4E063E1680B4353604F
:10100C00236813F0080F07D0114A536823F4605378
:10101C00216943EAC1035360FFF742FF0C4B5B6845
:10102C00C3F303130B4AD35CD8400B4B18600B4B28
:10103C001868FFF7CDFC002070BD0120704701201F
:10104C00FAE70120F8E70120F6E700BF0020024094
:10105C000010024074140008080000200400002056
:10106C0070B582B00024A446A1E07E4DAB4214D0F2
:10107C000CD8A5F58015AB420FD005F57025AB4209
:10108C000BD0A5F58015AB4210D106E0764DAB42E6
:10109C0003D005F58035AB4208D18B68002B50D0BE
:1010AC00012B49D04261082400E0CC68BEF1FF0F4F
:1010BC0049D806464FEA8C0233680F25954023EA3F
:1010CC00050304FA02F2134333604B6813F0805F9C
:1010DC006BD0664B9A6942F001029A619B6903F0EE
:1010EC0001030193019B4FEA9C02951C604B53F842
:1010FC0025600CF00305AD000F23AB4026EA030678
:10110C005C4B984226D003F58063984200F08C80AB
:10111C0003F58063984200F0898003F58063984260
:10112C0016D0042317E0CC680434BFE7CC6808342D
:10113C00BCE7CC680C34B9E702610824B6E700249C
:10114C00B4E70424B2E7061DACF108029200B3E741
:10115C00032300E00023AB4033430232444D45F8F7
:10116C0022304B6813F4801F62D0434A936843EAE1
:10117C000E0393604B6813F4001F5FD03E4AD36894
:10118C0043EA0E03D3604B6813F4003F5CD03A4A39
:10119C00536843EA0E0353604B6813F4803F59D0F5
:1011AC00354A136843EA0E0313600CF1010C0B680B
:1011BC0033FA0CF254D0012202FA0CF203EA020EBA
:1011CC0032EA0303F1D14B68122B3FF64EAF122BD0
:1011DC003FF66CAF01A555F823F000BFA71000082F
:1011EC00B7100008391100084B110008B91000089D
:1011FC00B9100008B9100008B9100008B91000089F
:10120C00B9100008B9100008B9100008B91000088E
:10121C00B9100008B9100008B9100008B91000087E
:10122C00331100083F110008012394E7022392E7D1
:10123C00114A936823EA0E0393609BE70E4AD36826
:10124C0023EA0E03D3609EE70B4A536823EA0E038E
:10125C005360A1E7084A136823EA0E031360A4E75E
:10126C0002B070BD000022100000311000100240CE
:10127C000000014000080140000401400AB1016176
:10128C00704709040161704708B5054B5B6903425F
:10129C0000D108BD024B5861FEF7D6FFF9E700BF3D
:1012AC0000040140002808DB0901C9B200F16040CC
:1012BC0000F5614080F80013704700F00F00090141
:1012CC00C9B2014B1954704714ED00E000B500F0A1
:1012DC000700C0F1070CBCF1040F28BF4FF0040C41
:1012EC00031D062B0FD9C31E4FF0FF3E0EFA0CF058
:1012FC0021EA000199400EFA03FE22EA0E0241EAAD
:10130C0002005DF804FB0023EEE70000074AD368F7
:10131C0023F4E0631B041B0C000200F4E0600343A5
:10132C0043F0BF6343F40033D360704700ED00E03B
:10133C0010B50446054BD868C0F30220FFF7C6FF72
:10134C0001462046FFF7AEFF10BD00BF00ED00E0E8
:10135C00002807DB00F01F02400901239340024ADA
:10136C0042F82030704700BF00E100E00138B0F1D6
:10137C00807F0BD24FF0E0235861054AF02182F8B0
:10138C0023100020986107221A61704701207047D2
:10139C0000ED00E070470000FFF7FCFF0B480C4924
:1013AC000C4A002302E0D458C4500433C4188C42B5
:1013BC00F9D3094A094C002301E013600432A2421C
:1013CC00FBD300F00FF8FEF7F3FF7047000000208E
:1013DC000C0000208C1400080C0000207800002069
:1013EC00FEE7000070B500260C4D0D4C641BA410DC
:1013FC00A64209D100F022F800260A4D0A4C641BC3
:10140C00A410A64205D170BD55F8043B984701368F
:10141C00EEE755F8043B98470136F2E784140008D0
:10142C00841400088414000888140008034602443D
:10143C00934200D1704703F8011BF9E7F8B500BFE0
:10144C00F8BC08BC9E467047F8B500BFF8BC08BC99
:04145C009E467047F1
:101460000102000002030405060708090A0B0C0D1F
:101470000E0F101000000000000000000102030425
:04148000060708094A
:0414840075010008E6
:041488004D0100080A
:0C148C0001000000100000000024F4002B
:04000005080013A537
:00000001FF
